{
  "success": true,
  "data": {
    "inputs": [
      {
        "txid": "d7f794bdf1afeb77c52805d3cd221ba1763387d67416d37fa5b20e2b110428c1",
        "vout": 0,
        "address": "DSt3xCnqttV6Z91foPwnZbiC2tZW1HGMfn",
        "script_type": "p2pkh",
        "amount": "78708331053",
        "confirmations": 685,
        "address_n": [2147483692, 2147483668, 2147483648, 0, 4],
        "tx": {
          "txid": "d7f794bdf1afeb77c52805d3cd221ba1763387d67416d37fa5b20e2b110428c1",
          "hash": "d7f794bdf1afeb77c52805d3cd221ba1763387d67416d37fa5b20e2b110428c1",
          "version": 1,
          "size": 372,
          "vsize": 372,
          "weight": 1488,
          "locktime": 0,
          "vin": [
            {
              "txid": "78f444ed3d565e970c2a1574e1cdc059e363287506279b235908215d1d5a3119",
              "vout": 1,
              "n": 0,
              "scriptSig": {
                "asm": "0 3044022009cb583c8d98c16487823a5c89a199fa414077af4a5ea880dc2bd721b9508b5502204869313e3dff4673e265fad504c574698afc6b1e341636b9f45f0c9a1ea6fc71[ALL] 30450221008a998c2c8834ec46728e3d7f9d72e4c7c50c2f9a5b13104456cdaf5bed753a8e02205882cdb02457d741da29ced8e9c3476304327859558a39a42ade5e5fd0348423[ALL] 522102669f885f1bd1ea516f63a0affcbb4524572136f00e55ab068eabdd00daf694bc21029a77a0ae3522c6c4c05a6a302031b7b78b290561b356cbf80141ef0a3dd810142102e816a307083a59f104f503386fef16d81a9f6878ee7848b757139a605916933853ae",
                "hex": "00473044022009cb583c8d98c16487823a5c89a199fa414077af4a5ea880dc2bd721b9508b5502204869313e3dff4673e265fad504c574698afc6b1e341636b9f45f0c9a1ea6fc71014830450221008a998c2c8834ec46728e3d7f9d72e4c7c50c2f9a5b13104456cdaf5bed753a8e02205882cdb02457d741da29ced8e9c3476304327859558a39a42ade5e5fd0348423014c69522102669f885f1bd1ea516f63a0affcbb4524572136f00e55ab068eabdd00daf694bc21029a77a0ae3522c6c4c05a6a302031b7b78b290561b356cbf80141ef0a3dd810142102e816a307083a59f104f503386fef16d81a9f6878ee7848b757139a605916933853ae"
              },
              "sequence": 4294967295,
              "addr": "SThxhNNxKskbZ9Ckmq69n6szd9d8nhVAs7",
              "valueSat": 100000000000,
              "value": 1000
            }
          ],
          "vout": [
            {
              "value": "787.08331053",
              "n": 0,
              "scriptPubKey": {
                "asm": "OP_DUP OP_HASH160 ee7a5e40df8d9b3ab05daeca178c00394e1aa7e9 OP_EQUALVERIFY OP_CHECKSIG",
                "hex": "76a914ee7a5e40df8d9b3ab05daeca178c00394e1aa7e988ac",
                "reqSigs": 1,
                "addresses": ["DSt3xCnqttV6Z91foPwnZbiC2tZW1HGMfn"],
                "type": "pubkeyhash"
              },
              "spentTxId": null,
              "spentIndex": null,
              "spentHeight": null
            },
            {
              "value": "212.91654747",
              "n": 1,
              "scriptPubKey": {
                "asm": "OP_HASH160 e80e17a1239bf8304dac31190105228cdfba917a OP_EQUAL",
                "hex": "a914e80e17a1239bf8304dac31190105228cdfba917a87",
                "reqSigs": 1,
                "addresses": ["SiSzgVmajpqHn9WyZZDQzsDUzuwvXpcVi9"],
                "type": "scripthash"
              },
              "spentTxId": null,
              "spentIndex": null,
              "spentHeight": null
            }
          ],
          "blockhash": "824b1fb8f8269ad89b5333cb119a82bf6a6227dd2a10274f01ff77f2a73e9e8a",
          "blockheight": 9780525,
          "confirmations": 685,
          "time": 1573759211,
          "blocktime": 1573759211,
          "valueOut": 999.999858,
          "valueIn": 1000,
          "fees": 0.000142
        },
        "hex": "010000000119315a1d5d210859239b2706752863e359c0cde174152a0c975e563ded44f47801000000fdfd0000473044022009cb583c8d98c16487823a5c89a199fa414077af4a5ea880dc2bd721b9508b5502204869313e3dff4673e265fad504c574698afc6b1e341636b9f45f0c9a1ea6fc71014830450221008a998c2c8834ec46728e3d7f9d72e4c7c50c2f9a5b13104456cdaf5bed753a8e02205882cdb02457d741da29ced8e9c3476304327859558a39a42ade5e5fd0348423014c69522102669f885f1bd1ea516f63a0affcbb4524572136f00e55ab068eabdd00daf694bc21029a77a0ae3522c6c4c05a6a302031b7b78b290561b356cbf80141ef0a3dd810142102e816a307083a59f104f503386fef16d81a9f6878ee7848b757139a605916933853aeffffffff022dd26153120000001976a914ee7a5e40df8d9b3ab05daeca178c00394e1aa7e988ac5bde14f50400000017a914e80e17a1239bf8304dac31190105228cdfba917a8700000000"
      }
    ],
    "outputs": [
      {
        "address": "SZpcABMQPNcodyj42TZ8Zq3zFu4d1aeRfy",
        "amount": "1337",
        "is_change": false
      },
      {
        "address": "DEGkXgxdw9hagRbbRV6eAfSXKAAXLGCUCQ",
        "amount": "78708328506",
        "is_change": true,
        "index": 8,
        "relpath": "1/8",
        "script_type": "p2pkh",
        "address_n": [2147483692, 2147483668, 2147483648, 1, 8]
      }
    ],
    "fee": 1210,
    "feePerKB": 5000
  }
}
